:100000000C942A000C942B010C942B010C942B01C2
:100010000C942B010C942B010C942B010C942B01B0
:100020000C942B010C942B010C942B010C942B01A0
:100030000C942B010C942B010C942B010C942B0190
:100040000C942B010C942B010C942B010C942B0180
:100050000C942B0111241FBECFE5D8E0DEBFCDBF2D
:0C0060000E9436000C943400F894FFCF8E
:10006C001ABAD29A8FEF84BB15BA17BA11BA8B9AF7
:10007C0080E090E00E94FC00892B31F063E082E08C
:10008C0090E00E94BD0005C063E082E090E00E9419
:10009C007A0084E090E00E94FC00892B51F063E030
:1000AC0087E090E00E94BD0083E090E00E94200178
:1000BC0009C063E087E090E00E947A0083E090E062
:1000CC000E94140182E090E00E940801892B31F01B
:1000DC0064E083E090E00E94BD00CACF64E083E05E
:0800EC0090E00E947A00C4CFED
:1000F4006230B9F018F4613031F008956330F9F0EA
:10010400643059F108954BB321E030E0B90102C0E5
:10011400660F771F8A95E2F7CB01809584238BBB0A
:10012400089548B321E030E0B90102C0660F771F9B
:100134008A95E2F7CB018095842388BB089545B363
:1001440021E030E0B90102C0660F771F8A95E2F71B
:10015400CB018095842385BB089542B321E030E030
:10016400B90102C0660F771F8A95E2F7CB0180952B
:06017400842382BB089504
:10017A006230B1F018F4613031F008956330E9F07B
:10018A00643041F108954BB321E030E0B90102C077
:10019A00660F771F8A95E2F7CB01842B8BBB0895F4
:1001AA0048B321E030E0B90102C0660F771F8A9593
:1001BA00E2F7CB01842B88BB089545B321E030E0F8
:1001CA00B90102C0660F771F8A95E2F7CB01842B2B
:1001DA0085BB089542B321E030E0B90102C0660F41
:0E01EA00771F8A95E2F7CB01842B82BB089524
:1001F80026B330E0A90102C0559547958A95E2F7E4
:08020800CA01817099270895D5
:1002100020B330E0A90102C0559547958A95E2F7D1
:08022000CA01817099270895BD
:100228009BB321E030E002C0220F331F8A95E2F72A
:08023800209529232BBB08953A
:100240009BB321E030E002C0220F331F8A95E2F712
:06025000292B2BBB0895D1
:040256000C94000004
:00000001FF
